{
  "address": "0x5FC8d32690cc91D4c39d9d3abcBD16989F875707",
  "abi": [
    {
      "anonymous": false,
      "inputs": [
        {
          "indexed": true,
          "internalType": "uint256",
          "name": "id",
          "type": "uint256"
        },
        {
          "indexed": true,
          "internalType": "address",
          "name": "token0",
          "type": "address"
        },
        {
          "indexed": true,
          "internalType": "address",
          "name": "token1",
          "type": "address"
        },
        {
          "indexed": false,
          "internalType": "uint8",
          "name": "fee",
          "type": "uint8"
        },
        {
          "indexed": false,
          "internalType": "address",
          "name": "poolAddress",
          "type": "address"
        }
      ],
      "name": "PoolCreated",
      "type": "event"
    },
    {
      "inputs": [
        {
          "internalType": "address",
          "name": "token0",
          "type": "address"
        },
        {
          "internalType": "address",
          "name": "token1",
          "type": "address"
        },
        {
          "internalType": "uint8",
          "name": "fee",
          "type": "uint8"
        }
      ],
      "name": "createPool",
      "outputs": [],
      "stateMutability": "nonpayable",
      "type": "function"
    },
    {
      "inputs": [],
      "name": "getNumberOfPool",
      "outputs": [
        {
          "internalType": "uint256",
          "name": "",
          "type": "uint256"
        }
      ],
      "stateMutability": "view",
      "type": "function"
    },
    {
      "inputs": [],
      "name": "getPoolDetails",
      "outputs": [
        {
          "components": [
            {
              "internalType": "uint256",
              "name": "id",
              "type": "uint256"
            },
            {
              "internalType": "address",
              "name": "token0",
              "type": "address"
            },
            {
              "internalType": "address",
              "name": "token1",
              "type": "address"
            },
            {
              "internalType": "uint256",
              "name": "reserve0",
              "type": "uint256"
            },
            {
              "internalType": "uint256",
              "name": "reserve1",
              "type": "uint256"
            },
            {
              "internalType": "uint256",
              "name": "totalSupply",
              "type": "uint256"
            },
            {
              "internalType": "address",
              "name": "liquidityToken",
              "type": "address"
            },
            {
              "internalType": "uint8",
              "name": "fee",
              "type": "uint8"
            }
          ],
          "internalType": "struct PoolFactory.PoolData[]",
          "name": "",
          "type": "tuple[]"
        }
      ],
      "stateMutability": "view",
      "type": "function"
    }
  ],
  "transactionHash": "0x2921d2e0ce4e6ca1e5f50ff70341cb6e70b77ac07665356188515eb5d98833db",
  "args": [],
  "numDeployments": 1,
  "solcInputHash": "c2b3fd2bda08fa8891691b6d24919e7e",
  "bytecode": "0x6080604052600060015534801561001557600080fd5b506139da806100256000396000f3fe60806040523480156200001157600080fd5b5060043610620000465760003560e01c80639305df60146200004b578063aca34c11146200006d578063fcff55aa146200008f575b600080fd5b62000055620000af565b60405162000064919062000bbc565b60405180910390f35b62000077620000bb565b60405162000086919062000dbd565b60405180910390f35b620000ad6004803603810190620000a7919062000e48565b6200053b565b005b60008080549050905090565b60606000808054905067ffffffffffffffff811115620000e057620000df62000ea4565b5b6040519080825280602002602001820160405280156200011d57816020015b6200010962000a68565b815260200190600190039081620000ff5790505b50905060005b6000805490508110156200053357600080828154811062000149576200014862000ed3565b5b90600052602060002090600302016002600381106200016d576200016c62000ed3565b5b0160009054906101000a900473ffffffffffffffffffffffffffffffffffffffff16905060008190506000808273ffffffffffffffffffffffffffffffffffffffff16630902f1ac6040518163ffffffff1660e01b81526004016040805180830381865afa158015620001e4573d6000803e3d6000fd5b505050506040513d601f19601f820116820180604052508101906200020a919062000f33565b915091506040518061010001604052808681526020016000878154811062000237576200023662000ed3565b5b90600052602060002090600302016000600381106200025b576200025a62000ed3565b5b0160009054906101000a900473ffffffffffffffffffffffffffffffffffffffff1673ffffffffffffffffffffffffffffffffffffffff16815260200160008781548110620002af57620002ae62000ed3565b5b9060005260206000209060030201600160038110620002d357620002d262000ed3565b5b0160009054906101000a900473ffffffffffffffffffffffffffffffffffffffff1673ffffffffffffffffffffffffffffffffffffffff1681526020018381526020018281526020018473ffffffffffffffffffffffffffffffffffffffff166318160ddd6040518163ffffffff1660e01b8152600401602060405180830381865afa15801562000368573d6000803e3d6000fd5b505050506040513d601f19601f820116820180604052508101906200038e919062000f7a565b81526020018573ffffffffffffffffffffffffffffffffffffffff16815260200160026000808981548110620003c957620003c862000ed3565b5b9060005260206000209060030201600060038110620003ed57620003ec62000ed3565b5b0160009054906101000a900473ffffffffffffffffffffffffffffffffffffffff1673ffffffffffffffffffffffffffffffffffffffff1673ffffffffffffffffffffffffffffffffffffffff168152602001908152602001600020600080898154811062000461576200046062000ed3565b5b906000526020600020906003020160016003811062000485576200048462000ed3565b5b0160009054906101000a900473ffffffffffffffffffffffffffffffffffffffff1673ffffffffffffffffffffffffffffffffffffffff1673ffffffffffffffffffffffffffffffffffffffff16815260200190815260200160002060000160149054906101000a900460ff1660ff168152508686815181106200050e576200050d62000ed3565b5b60200260200101819052505050505080806200052a9062000fdb565b91505062000123565b508091505090565b60648160ff16111562000585576040517f08c379a00000000000000000000000000000000000000000000000000000000081526004016200057c9062001089565b60405180910390fd5b8173ffffffffffffffffffffffffffffffffffffffff168373ffffffffffffffffffffffffffffffffffffffff1603620005f6576040517f08c379a0000000000000000000000000000000000000000000000000000000008152600401620005ed90620010fb565b60405180910390fd5b600073ffffffffffffffffffffffffffffffffffffffff16600260008573ffffffffffffffffffffffffffffffffffffffff1673ffffffffffffffffffffffffffffffffffffffff16815260200190815260200160002060008473ffffffffffffffffffffffffffffffffffffffff1673ffffffffffffffffffffffffffffffffffffffff16815260200190815260200160002060000160009054906101000a900473ffffffffffffffffffffffffffffffffffffffff1673ffffffffffffffffffffffffffffffffffffffff1614806200076357508060ff16600260008573ffffffffffffffffffffffffffffffffffffffff1673ffffffffffffffffffffffffffffffffffffffff16815260200190815260200160002060008473ffffffffffffffffffffffffffffffffffffffff1673ffffffffffffffffffffffffffffffffffffffff16815260200190815260200160002060000160149054906101000a900460ff1660ff1614155b620007a5576040517f08c379a00000000000000000000000000000000000000000000000000000000081526004016200079c906200116d565b60405180910390fd5b6000838383604051620007b89062000af2565b620007c693929190620011b1565b604051809103906000f080158015620007e3573d6000803e3d6000fd5b509050600081905060405180604001604052808273ffffffffffffffffffffffffffffffffffffffff1681526020018460ff16815250600260008773ffffffffffffffffffffffffffffffffffffffff1673ffffffffffffffffffffffffffffffffffffffff16815260200190815260200160002060008673ffffffffffffffffffffffffffffffffffffffff1673ffffffffffffffffffffffffffffffffffffffff16815260200190815260200160002060008201518160000160006101000a81548173ffffffffffffffffffffffffffffffffffffffff021916908373ffffffffffffffffffffffffffffffffffffffff16021790555060208201518160000160146101000a81548160ff021916908360ff160217905550905050600060405180606001604052808773ffffffffffffffffffffffffffffffffffffffff1673ffffffffffffffffffffffffffffffffffffffff1681526020018673ffffffffffffffffffffffffffffffffffffffff1673ffffffffffffffffffffffffffffffffffffffff1681526020018373ffffffffffffffffffffffffffffffffffffffff1673ffffffffffffffffffffffffffffffffffffffff168152509080600181540180825580915050600190039060005260206000209060030201600090919091909150906003620009da92919062000b00565b508373ffffffffffffffffffffffffffffffffffffffff168573ffffffffffffffffffffffffffffffffffffffff166001547f29f7c7a310a27e49669286207bb9c1d26582d9e39c7ab04376d9581145bf07b2868560405162000a3f929190620011ee565b60405180910390a46001600081548092919062000a5c9062000fdb565b91905055505050505050565b60405180610100016040528060008152602001600073ffffffffffffffffffffffffffffffffffffffff168152602001600073ffffffffffffffffffffffffffffffffffffffff168152602001600081526020016000815260200160008152602001600073ffffffffffffffffffffffffffffffffffffffff168152602001600060ff1681525090565b612789806200121c83390190565b826003810192821562000b6f579160200282015b8281111562000b6e5782518260006101000a81548173ffffffffffffffffffffffffffffffffffffffff021916908373ffffffffffffffffffffffffffffffffffffffff1602179055509160200191906001019062000b14565b5b50905062000b7e919062000b82565b5090565b5b8082111562000b9d57600081600090555060010162000b83565b5090565b6000819050919050565b62000bb68162000ba1565b82525050565b600060208201905062000bd3600083018462000bab565b92915050565b600081519050919050565b600082825260208201905092915050565b6000819050602082019050919050565b62000c108162000ba1565b82525050565b600073ffffffffffffffffffffffffffffffffffffffff82169050919050565b600062000c438262000c16565b9050919050565b62000c558162000c36565b82525050565b600060ff82169050919050565b62000c738162000c5b565b82525050565b6101008201600082015162000c92600085018262000c05565b50602082015162000ca7602085018262000c4a565b50604082015162000cbc604085018262000c4a565b50606082015162000cd1606085018262000c05565b50608082015162000ce6608085018262000c05565b5060a082015162000cfb60a085018262000c05565b5060c082015162000d1060c085018262000c4a565b5060e082015162000d2560e085018262000c68565b50505050565b600062000d39838362000c79565b6101008301905092915050565b6000602082019050919050565b600062000d608262000bd9565b62000d6c818562000be4565b935062000d798362000bf5565b8060005b8381101562000db057815162000d94888262000d2b565b975062000da18362000d46565b92505060018101905062000d7d565b5085935050505092915050565b6000602082019050818103600083015262000dd9818462000d53565b905092915050565b600080fd5b62000df18162000c36565b811462000dfd57600080fd5b50565b60008135905062000e118162000de6565b92915050565b62000e228162000c5b565b811462000e2e57600080fd5b50565b60008135905062000e428162000e17565b92915050565b60008060006060848603121562000e645762000e6362000de1565b5b600062000e748682870162000e00565b935050602062000e878682870162000e00565b925050604062000e9a8682870162000e31565b9150509250925092565b7f4e487b7100000000000000000000000000000000000000000000000000000000600052604160045260246000fd5b7f4e487b7100000000000000000000000000000000000000000000000000000000600052603260045260246000fd5b62000f0d8162000ba1565b811462000f1957600080fd5b50565b60008151905062000f2d8162000f02565b92915050565b6000806040838503121562000f4d5762000f4c62000de1565b5b600062000f5d8582860162000f1c565b925050602062000f708582860162000f1c565b9150509250929050565b60006020828403121562000f935762000f9262000de1565b5b600062000fa38482850162000f1c565b91505092915050565b7f4e487b7100000000000000000000000000000000000000000000000000000000600052601160045260246000fd5b600062000fe88262000ba1565b91507fffffffffffffffffffffffffffffffffffffffffffffffffffffffffffffffff82036200101d576200101c62000fac565b5b600182019050919050565b600082825260208201905092915050565b7f4665652063616e6e6f74206265206d6f7265207468616e203125000000000000600082015250565b600062001071601a8362001028565b91506200107e8262001039565b602082019050919050565b60006020820190508181036000830152620010a48162001062565b9050919050565b7f43616e6e6f742074726164652073616d6520746f6b656e000000000000000000600082015250565b6000620010e360178362001028565b9150620010f082620010ab565b602082019050919050565b600060208201905081810360008301526200111681620010d4565b9050919050565b7f506f6f6c466163746f72795f5f50616972416c72656164794578697374730000600082015250565b600062001155601e8362001028565b915062001162826200111d565b602082019050919050565b60006020820190508181036000830152620011888162001146565b9050919050565b6200119a8162000c36565b82525050565b620011ab8162000c5b565b82525050565b6000606082019050620011c860008301866200118f565b620011d760208301856200118f565b620011e66040830184620011a0565b949350505050565b6000604082019050620012056000830185620011a0565b6200121460208301846200118f565b939250505056fe60e06040523480156200001157600080fd5b5060405162002789380380620027898339818101604052810190620000379190620001fc565b6040518060400160405280600981526020017f54616e6f546f6b656e00000000000000000000000000000000000000000000008152506040518060400160405280600581526020017f54616b656e00000000000000000000000000000000000000000000000000000081525081818160039081620000b69190620004d2565b508060049081620000c89190620004d2565b505050505060016005819055508273ffffffffffffffffffffffffffffffffffffffff1660808173ffffffffffffffffffffffffffffffffffffffff16815250508173ffffffffffffffffffffffffffffffffffffffff1660a08173ffffffffffffffffffffffffffffffffffffffff16815250508060ff1660c08160ff1681525050505050620005b9565b600080fd5b600073ffffffffffffffffffffffffffffffffffffffff82169050919050565b6000620001868262000159565b9050919050565b620001988162000179565b8114620001a457600080fd5b50565b600081519050620001b8816200018d565b92915050565b600060ff82169050919050565b620001d681620001be565b8114620001e257600080fd5b50565b600081519050620001f681620001cb565b92915050565b60008060006060848603121562000218576200021762000154565b5b60006200022886828701620001a7565b93505060206200023b86828701620001a7565b92505060406200024e86828701620001e5565b9150509250925092565b600081519050919050565b7f4e487b7100000000000000000000000000000000000000000000000000000000600052604160045260246000fd5b7f4e487b7100000000000000000000000000000000000000000000000000000000600052602260045260246000fd5b60006002820490506001821680620002da57607f821691505b602082108103620002f057620002ef62000292565b5b50919050565b60008190508160005260206000209050919050565b60006020601f8301049050919050565b600082821b905092915050565b6000600883026200035a7fffffffffffffffffffffffffffffffffffffffffffffffffffffffffffffffff826200031b565b6200036686836200031b565b95508019841693508086168417925050509392505050565b6000819050919050565b6000819050919050565b6000620003b3620003ad620003a7846200037e565b62000388565b6200037e565b9050919050565b6000819050919050565b620003cf8362000392565b620003e7620003de82620003ba565b84845462000328565b825550505050565b600090565b620003fe620003ef565b6200040b818484620003c4565b505050565b5b81811015620004335762000427600082620003f4565b60018101905062000411565b5050565b601f82111562000482576200044c81620002f6565b62000457846200030b565b8101602085101562000467578190505b6200047f62000476856200030b565b83018262000410565b50505b505050565b600082821c905092915050565b6000620004a76000198460080262000487565b1980831691505092915050565b6000620004c2838362000494565b9150826002028217905092915050565b620004dd8262000258565b67ffffffffffffffff811115620004f957620004f862000263565b5b620005058254620002c1565b6200051282828562000437565b600060209050601f8311600181146200054a576000841562000535578287015190505b620005418582620004b4565b865550620005b1565b601f1984166200055a86620002f6565b60005b8281101562000584578489015182556001820191506020850194506020810190506200055d565b86831015620005a45784890151620005a0601f89168262000494565b8355505b6001600288020188555050505b505050505050565b60805160a05160c0516121616200062860003960008181610ba20152610d000152600081816106de0152818161091501528181610b7701528181610c250152610cdb0152600081816106b9015281816108f001528181610b5601528181610bd00152610cb601526121616000f3fe608060405234801561001057600080fd5b506004361061010b5760003560e01c806370a08231116100a2578063a9059cbb11610071578063a9059cbb146102d0578063aa6ca80814610300578063ced72f871461031f578063d004f0f71461033d578063dd62ed3e146103595761010b565b806370a082311461024a57806395d89b411461027a5780639c8f9f23146102985780639cd441da146102b45761010b565b806323b872dd116100de57806323b872dd1461019b57806324be6375146101cb578063313ce567146101fc578063677342ce1461021a5761010b565b806306fdde03146101105780630902f1ac1461012e578063095ea7b31461014d57806318160ddd1461017d575b600080fd5b610118610389565b60405161012591906118d0565b60405180910390f35b61013661041b565b60405161014492919061190b565b60405180910390f35b610167600480360381019061016291906119c3565b61042c565b6040516101749190611a1e565b60405180910390f35b61018561044f565b6040516101929190611a39565b60405180910390f35b6101b560048036038101906101b09190611a54565b610459565b6040516101c29190611a1e565b60405180910390f35b6101e560048036038101906101e09190611aa7565b610488565b6040516101f392919061190b565b60405180910390f35b610204610517565b6040516102119190611af0565b60405180910390f35b610234600480360381019061022f9190611aa7565b610520565b6040516102419190611a39565b60405180910390f35b610264600480360381019061025f9190611b0b565b610595565b6040516102719190611a39565b60405180910390f35b6102826105dd565b60405161028f91906118d0565b60405180910390f35b6102b260048036038101906102ad9190611aa7565b61066f565b005b6102ce60048036038101906102c99190611b38565b610849565b005b6102ea60048036038101906102e591906119c3565b610b2e565b6040516102f79190611a1e565b60405180910390f35b610308610b51565b604051610316929190611b87565b60405180910390f35b610327610b9e565b6040516103349190611af0565b60405180910390f35b610357600480360381019061035291906119c3565b610bc6565b005b610373600480360381019061036e9190611bb0565b6110b5565b6040516103809190611a39565b60405180910390f35b60606003805461039890611c1f565b80601f01602080910402602001604051908101604052809291908181526020018280546103c490611c1f565b80156104115780601f106103e657610100808354040283529160200191610411565b820191906000526020600020905b8154815290600101906020018083116103f457829003601f168201915b5050505050905090565b600080600654600754915091509091565b60008061043761113c565b9050610444818585611144565b600191505092915050565b6000600254905090565b60008061046461113c565b9050610471858285611156565b61047c8585856111ea565b60019150509392505050565b600080600083116104ce576040517f08c379a00000000000000000000000000000000000000000000000000000000081526004016104c590611c9c565b60405180910390fd5b6104d661044f565b836006546104e49190611ceb565b6104ee9190611d5c565b91506104f861044f565b836007546105069190611ceb565b6105109190611d5c565b9050915091565b60006012905090565b60008082036105325760009050610590565b600060026001846105439190611d8d565b61054d9190611d5c565b905060008390505b8082101561058a57819050600282838661056f9190611d5c565b6105799190611d8d565b6105839190611d5c565b9150610555565b80925050505b919050565b60008060008373ffffffffffffffffffffffffffffffffffffffff1673ffffffffffffffffffffffffffffffffffffffff168152602001908152602001600020549050919050565b6060600480546105ec90611c1f565b80601f016020809104026020016040519081016040528092919081815260200182805461061890611c1f565b80156106655780601f1061063a57610100808354040283529160200191610665565b820191906000526020600020905b81548152906001019060200180831161064857829003601f168201915b5050505050905090565b6106776112de565b60008061068383610488565b915091506106913384611324565b6106b5826006546106a29190611dc1565b826007546106b09190611dc1565b6113a6565b60007f0000000000000000000000000000000000000000000000000000000000000000905060007f000000000000000000000000000000000000000000000000000000000000000090508173ffffffffffffffffffffffffffffffffffffffff1663a9059cbb33866040518363ffffffff1660e01b815260040161073a929190611df5565b6020604051808303816000875af1158015610759573d6000803e3d6000fd5b505050506040513d601f19601f8201168201806040525081019061077d9190611e4a565b508073ffffffffffffffffffffffffffffffffffffffff1663a9059cbb33856040518363ffffffff1660e01b81526004016107b9929190611df5565b6020604051808303816000875af11580156107d8573d6000803e3d6000fd5b505050506040513d601f19601f820116820180604052508101906107fc9190611e4a565b5082857f47a132e4e9e9fd057fafaf86c87eac1f1beb455bf20382505e83022d9716337984878560405161083293929190611e77565b60405180910390a3505050506108466113b8565b50565b600060065490506000600754905060008214806108665750600081145b1561089d576040517f17a401a800000000000000000000000000000000000000000000000000000000815260040160405180910390fd5b80826108a99190611d5c565b83856108b59190611d5c565b146108ec576040517f17a401a800000000000000000000000000000000000000000000000000000000815260040160405180910390fd5b60007f0000000000000000000000000000000000000000000000000000000000000000905060007f000000000000000000000000000000000000000000000000000000000000000090508173ffffffffffffffffffffffffffffffffffffffff166323b872dd3330896040518463ffffffff1660e01b815260040161097393929190611eae565b6020604051808303816000875af1158015610992573d6000803e3d6000fd5b505050506040513d601f19601f820116820180604052508101906109b69190611e4a565b508073ffffffffffffffffffffffffffffffffffffffff166323b872dd3330886040518463ffffffff1660e01b81526004016109f493929190611eae565b6020604051808303816000875af1158015610a13573d6000803e3d6000fd5b505050506040513d601f19601f82011682018060405250810190610a379190611e4a565b506000610a4261044f565b9050600080821115610a6c57818689610a5b9190611d5c565b610a659190611ceb565b9050610a83565b610a808789610a7b9190611ceb565b610520565b90505b60008103610abd576040517f4aed4e4b00000000000000000000000000000000000000000000000000000000815260040160405180910390fd5b610ac733826113c2565b610ae78887610ad69190611d8d565b8887610ae29190611d8d565b6113a6565b86817f86c3929a230b573aa47cd83759aed11b800d147abc23e246dfeb5ebbd7a110e3868b87604051610b1c93929190611e77565b60405180910390a35050505050505050565b600080610b3961113c565b9050610b468185856111ea565b600191505092915050565b6000807f00000000000000000000000000000000000000000000000000000000000000007f0000000000000000000000000000000000000000000000000000000000000000915091509091565b60007f0000000000000000000000000000000000000000000000000000000000000000905090565b610bce6112de565b7f000000000000000000000000000000000000000000000000000000000000000073ffffffffffffffffffffffffffffffffffffffff168273ffffffffffffffffffffffffffffffffffffffff161480610c7357507f000000000000000000000000000000000000000000000000000000000000000073ffffffffffffffffffffffffffffffffffffffff168273ffffffffffffffffffffffffffffffffffffffff16145b610cb2576040517f08c379a0000000000000000000000000000000000000000000000000000000008152600401610ca990611f31565b60405180910390fd5b60007f0000000000000000000000000000000000000000000000000000000000000000905060007f0000000000000000000000000000000000000000000000000000000000000000905060007f0000000000000000000000000000000000000000000000000000000000000000905060006103e88260ff16612710610d379190611f5f565b61ffff1686610d469190611ceb565b610d509190611d5c565b905060008473ffffffffffffffffffffffffffffffffffffffff168773ffffffffffffffffffffffffffffffffffffffff1614610d8f57600754610d93565b6006545b905060008573ffffffffffffffffffffffffffffffffffffffff168873ffffffffffffffffffffffffffffffffffffffff1614610dd257600654610dd6565b6007545b905086811015610e1b576040517f08c379a0000000000000000000000000000000000000000000000000000000008152600401610e1290611fe1565b60405180910390fd5b60008383610e299190611d8d565b8285610e359190611ceb565b610e3f9190611d5c565b90508873ffffffffffffffffffffffffffffffffffffffff166323b872dd33308b6040518463ffffffff1660e01b8152600401610e7e93929190611eae565b6020604051808303816000875af1158015610e9d573d6000803e3d6000fd5b505050506040513d601f19601f82011682018060405250810190610ec19190611e4a565b610f00576040517f08c379a0000000000000000000000000000000000000000000000000000000008152600401610ef79061204d565b60405180910390fd5b610faa8773ffffffffffffffffffffffffffffffffffffffff168a73ffffffffffffffffffffffffffffffffffffffff1614610f47578183610f429190611dc1565b610f54565b8484610f539190611d8d565b5b8873ffffffffffffffffffffffffffffffffffffffff168b73ffffffffffffffffffffffffffffffffffffffff1614610f98578585610f939190611d8d565b610fa5565b8284610fa49190611dc1565b5b6113a6565b8573ffffffffffffffffffffffffffffffffffffffff1663a9059cbb33836040518363ffffffff1660e01b8152600401610fe5929190611df5565b6020604051808303816000875af1158015611004573d6000803e3d6000fd5b505050506040513d601f19601f820116820180604052508101906110289190611e4a565b611067576040517f08c379a000000000000000000000000000000000000000000000000000000000815260040161105e906120b9565b60405180910390fd5b80887f80044f7893845e3883418a4d784224b0d2d9606ca5f19c2a910401c2c62761b58b8960405161109a929190611b87565b60405180910390a3505050505050506110b16113b8565b5050565b6000600160008473ffffffffffffffffffffffffffffffffffffffff1673ffffffffffffffffffffffffffffffffffffffff16815260200190815260200160002060008373ffffffffffffffffffffffffffffffffffffffff1673ffffffffffffffffffffffffffffffffffffffff16815260200190815260200160002054905092915050565b600033905090565b6111518383836001611444565b505050565b600061116284846110b5565b90507fffffffffffffffffffffffffffffffffffffffffffffffffffffffffffffffff81146111e457818110156111d4578281836040517ffb8f41b20000000000000000000000000000000000000000000000000000000081526004016111cb939291906120d9565b60405180910390fd5b6111e384848484036000611444565b5b50505050565b600073ffffffffffffffffffffffffffffffffffffffff168373ffffffffffffffffffffffffffffffffffffffff160361125c5760006040517f96c6fd1e0000000000000000000000000000000000000000000000000000000081526004016112539190612110565b60405180910390fd5b600073ffffffffffffffffffffffffffffffffffffffff168273ffffffffffffffffffffffffffffffffffffffff16036112ce5760006040517fec442f050000000000000000000000000000000000000000000000000000000081526004016112c59190612110565b60405180910390fd5b6112d983838361161b565b505050565b60026005540361131a576040517f3ee5aeb500000000000000000000000000000000000000000000000000000000815260040160405180910390fd5b6002600581905550565b600073ffffffffffffffffffffffffffffffffffffffff168273ffffffffffffffffffffffffffffffffffffffff16036113965760006040517f96c6fd1e00000000000000000000000000000000000000000000000000000000815260040161138d9190612110565b60405180910390fd5b6113a28260008361161b565b5050565b81600681905550806007819055505050565b6001600581905550565b600073ffffffffffffffffffffffffffffffffffffffff168273ffffffffffffffffffffffffffffffffffffffff16036114345760006040517fec442f0500000000000000000000000000000000000000000000000000000000815260040161142b9190612110565b60405180910390fd5b6114406000838361161b565b5050565b600073ffffffffffffffffffffffffffffffffffffffff168473ffffffffffffffffffffffffffffffffffffffff16036114b65760006040517fe602df050000000000000000000000000000000000000000000000000000000081526004016114ad9190612110565b60405180910390fd5b600073ffffffffffffffffffffffffffffffffffffffff168373ffffffffffffffffffffffffffffffffffffffff16036115285760006040517f94280d6200000000000000000000000000000000000000000000000000000000815260040161151f9190612110565b60405180910390fd5b81600160008673ffffffffffffffffffffffffffffffffffffffff1673ffffffffffffffffffffffffffffffffffffffff16815260200190815260200160002060008573ffffffffffffffffffffffffffffffffffffffff1673ffffffffffffffffffffffffffffffffffffffff168152602001908152602001600020819055508015611615578273ffffffffffffffffffffffffffffffffffffffff168473ffffffffffffffffffffffffffffffffffffffff167f8c5be1e5ebec7d5bd14f71427d1e84f3dd0314c0f7b2291e5b200ac8c7c3b9258460405161160c9190611a39565b60405180910390a35b50505050565b600073ffffffffffffffffffffffffffffffffffffffff168373ffffffffffffffffffffffffffffffffffffffff160361166d5780600260008282546116619190611d8d565b92505081905550611740565b60008060008573ffffffffffffffffffffffffffffffffffffffff1673ffffffffffffffffffffffffffffffffffffffff168152602001908152602001600020549050818110156116f9578381836040517fe450d38c0000000000000000000000000000000000000000000000000000000081526004016116f0939291906120d9565b60405180910390fd5b8181036000808673ffffffffffffffffffffffffffffffffffffffff1673ffffffffffffffffffffffffffffffffffffffff16815260200190815260200160002081905550505b600073ffffffffffffffffffffffffffffffffffffffff168273ffffffffffffffffffffffffffffffffffffffff160361178957806002600082825403925050819055506117d6565b806000808473ffffffffffffffffffffffffffffffffffffffff1673ffffffffffffffffffffffffffffffffffffffff168152602001908152602001600020600082825401925050819055505b8173ffffffffffffffffffffffffffffffffffffffff168373ffffffffffffffffffffffffffffffffffffffff167fddf252ad1be2c89b69c2b068fc378daa952ba7f163c4a11628f55a4df523b3ef836040516118339190611a39565b60405180910390a3505050565b600081519050919050565b600082825260208201905092915050565b60005b8381101561187a57808201518184015260208101905061185f565b60008484015250505050565b6000601f19601f8301169050919050565b60006118a282611840565b6118ac818561184b565b93506118bc81856020860161185c565b6118c581611886565b840191505092915050565b600060208201905081810360008301526118ea8184611897565b905092915050565b6000819050919050565b611905816118f2565b82525050565b600060408201905061192060008301856118fc565b61192d60208301846118fc565b9392505050565b600080fd5b600073ffffffffffffffffffffffffffffffffffffffff82169050919050565b600061196482611939565b9050919050565b61197481611959565b811461197f57600080fd5b50565b6000813590506119918161196b565b92915050565b6119a0816118f2565b81146119ab57600080fd5b50565b6000813590506119bd81611997565b92915050565b600080604083850312156119da576119d9611934565b5b60006119e885828601611982565b92505060206119f9858286016119ae565b9150509250929050565b60008115159050919050565b611a1881611a03565b82525050565b6000602082019050611a336000830184611a0f565b92915050565b6000602082019050611a4e60008301846118fc565b92915050565b600080600060608486031215611a6d57611a6c611934565b5b6000611a7b86828701611982565b9350506020611a8c86828701611982565b9250506040611a9d868287016119ae565b9150509250925092565b600060208284031215611abd57611abc611934565b5b6000611acb848285016119ae565b91505092915050565b600060ff82169050919050565b611aea81611ad4565b82525050565b6000602082019050611b056000830184611ae1565b92915050565b600060208284031215611b2157611b20611934565b5b6000611b2f84828501611982565b91505092915050565b60008060408385031215611b4f57611b4e611934565b5b6000611b5d858286016119ae565b9250506020611b6e858286016119ae565b9150509250929050565b611b8181611959565b82525050565b6000604082019050611b9c6000830185611b78565b611ba96020830184611b78565b9392505050565b60008060408385031215611bc757611bc6611934565b5b6000611bd585828601611982565b9250506020611be685828601611982565b9150509250929050565b7f4e487b7100000000000000000000000000000000000000000000000000000000600052602260045260246000fd5b60006002820490506001821680611c3757607f821691505b602082108103611c4a57611c49611bf0565b5b50919050565b7f30204c697175696469747920546f6b656e730000000000000000000000000000600082015250565b6000611c8660128361184b565b9150611c9182611c50565b602082019050919050565b60006020820190508181036000830152611cb581611c79565b9050919050565b7f4e487b7100000000000000000000000000000000000000000000000000000000600052601160045260246000fd5b6000611cf6826118f2565b9150611d01836118f2565b9250828202611d0f816118f2565b91508282048414831517611d2657611d25611cbc565b5b5092915050565b7f4e487b7100000000000000000000000000000000000000000000000000000000600052601260045260246000fd5b6000611d67826118f2565b9150611d72836118f2565b925082611d8257611d81611d2d565b5b828204905092915050565b6000611d98826118f2565b9150611da3836118f2565b9250828201905080821115611dbb57611dba611cbc565b5b92915050565b6000611dcc826118f2565b9150611dd7836118f2565b9250828203905081811115611def57611dee611cbc565b5b92915050565b6000604082019050611e0a6000830185611b78565b611e1760208301846118fc565b9392505050565b611e2781611a03565b8114611e3257600080fd5b50565b600081519050611e4481611e1e565b92915050565b600060208284031215611e6057611e5f611934565b5b6000611e6e84828501611e35565b91505092915050565b6000606082019050611e8c6000830186611b78565b611e9960208301856118fc565b611ea66040830184611b78565b949350505050565b6000606082019050611ec36000830186611b78565b611ed06020830185611b78565b611edd60408301846118fc565b949350505050565b7f496e76616c696420546f6b656e00000000000000000000000000000000000000600082015250565b6000611f1b600d8361184b565b9150611f2682611ee5565b602082019050919050565b60006020820190508181036000830152611f4a81611f0e565b9050919050565b600061ffff82169050919050565b6000611f6a82611f51565b9150611f7583611f51565b9250828203905061ffff811115611f8f57611f8e611cbc565b5b92915050565b7f496e73756666696369656e742042616c616e6365000000000000000000000000600082015250565b6000611fcb60148361184b565b9150611fd682611f95565b602082019050919050565b60006020820190508181036000830152611ffa81611fbe565b9050919050565b7f5472616e7366657220746f6b656e20696e206661696c65640000000000000000600082015250565b600061203760188361184b565b915061204282612001565b602082019050919050565b600060208201905081810360008301526120668161202a565b9050919050565b7f5472616e7366657220746f6b656e206f7574206661696c656400000000000000600082015250565b60006120a360198361184b565b91506120ae8261206d565b602082019050919050565b600060208201905081810360008301526120d281612096565b9050919050565b60006060820190506120ee6000830186611b78565b6120fb60208301856118fc565b61210860408301846118fc565b949350505050565b60006020820190506121256000830184611b78565b9291505056fea264697066735822122032c52d7fca1800e303780fa68c74a98aa2b3dbf7b15a1d13adbc628a6259779864736f6c63430008140033a26469706673582212203fb07a763a20e8d03144b47e0093049b6299d628eed483cf1aa214819313945f64736f6c63430008140033",
  "devdoc": {
    "kind": "dev",
    "methods": {},
    "version": 1
  },
  "userdoc": {
    "kind": "user",
    "methods": {},
    "version": 1
  },
  "storageLayout": {
    "storage": [
      {
        "astId": 1475,
        "contract": "contracts/pool/PoolFactory.sol:PoolFactory",
        "label": "s_poolsList",
        "offset": 0,
        "slot": "0",
        "type": "t_array(t_array(t_address)3_storage)dyn_storage"
      },
      {
        "astId": 1478,
        "contract": "contracts/pool/PoolFactory.sol:PoolFactory",
        "label": "poolIdCounter",
        "offset": 0,
        "slot": "1",
        "type": "t_uint256"
      },
      {
        "astId": 1507,
        "contract": "contracts/pool/PoolFactory.sol:PoolFactory",
        "label": "s_tokensToPool",
        "offset": 0,
        "slot": "2",
        "type": "t_mapping(t_address,t_mapping(t_address,t_struct(PoolStruct)1483_storage))"
      }
    ],
    "types": {
      "t_address": {
        "encoding": "inplace",
        "label": "address",
        "numberOfBytes": "20"
      },
      "t_array(t_address)3_storage": {
        "base": "t_address",
        "encoding": "inplace",
        "label": "address[3]",
        "numberOfBytes": "96"
      },
      "t_array(t_array(t_address)3_storage)dyn_storage": {
        "base": "t_array(t_address)3_storage",
        "encoding": "dynamic_array",
        "label": "address[3][]",
        "numberOfBytes": "32"
      },
      "t_mapping(t_address,t_mapping(t_address,t_struct(PoolStruct)1483_storage))": {
        "encoding": "mapping",
        "key": "t_address",
        "label": "mapping(address => mapping(address => struct PoolFactory.PoolStruct))",
        "numberOfBytes": "32",
        "value": "t_mapping(t_address,t_struct(PoolStruct)1483_storage)"
      },
      "t_mapping(t_address,t_struct(PoolStruct)1483_storage)": {
        "encoding": "mapping",
        "key": "t_address",
        "label": "mapping(address => struct PoolFactory.PoolStruct)",
        "numberOfBytes": "32",
        "value": "t_struct(PoolStruct)1483_storage"
      },
      "t_struct(PoolStruct)1483_storage": {
        "encoding": "inplace",
        "label": "struct PoolFactory.PoolStruct",
        "members": [
          {
            "astId": 1480,
            "contract": "contracts/pool/PoolFactory.sol:PoolFactory",
            "label": "poolAddress",
            "offset": 0,
            "slot": "0",
            "type": "t_address"
          },
          {
            "astId": 1482,
            "contract": "contracts/pool/PoolFactory.sol:PoolFactory",
            "label": "fee",
            "offset": 20,
            "slot": "0",
            "type": "t_uint8"
          }
        ],
        "numberOfBytes": "32"
      },
      "t_uint256": {
        "encoding": "inplace",
        "label": "uint256",
        "numberOfBytes": "32"
      },
      "t_uint8": {
        "encoding": "inplace",
        "label": "uint8",
        "numberOfBytes": "1"
      }
    }
  }
}